{
    "contractName": "StandardTokenWithHodl",
    "abi": [
        {
            "inputs": [
                {
                    "internalType": "string",
                    "name": "StandardTokenTokenName",
                    "type": "string"
                },
                {
                    "internalType": "string",
                    "name": "StandardTokenTokenSymbol",
                    "type": "string"
                },
                {
                    "internalType": "uint8",
                    "name": "StandardTokenTokenDecimals",
                    "type": "uint8"
                },
                {
                    "internalType": "uint256",
                    "name": "StandardTokenInitialSupply",
                    "type": "uint256"
                },
                {
                    "internalType": "uint256",
                    "name": "TRC20HodlClaimPeriod",
                    "type": "uint256"
                }
            ],
            "payable": false,
            "stateMutability": "nonpayable",
            "type": "constructor"
        },
        {
            "anonymous": false,
            "inputs": [
                {
                    "indexed": true,
                    "internalType": "address",
                    "name": "owner",
                    "type": "address"
                },
                {
                    "indexed": true,
                    "internalType": "address",
                    "name": "spender",
                    "type": "address"
                },
                {
                    "indexed": false,
                    "internalType": "uint256",
                    "name": "value",
                    "type": "uint256"
                }
            ],
            "name": "Approval",
            "type": "event"
        },
        {
            "anonymous": false,
            "inputs": [
                {
                    "indexed": true,
                    "internalType": "address",
                    "name": "from",
                    "type": "address"
                },
                {
                    "indexed": true,
                    "internalType": "address",
                    "name": "to",
                    "type": "address"
                },
                {
                    "indexed": false,
                    "internalType": "uint256",
                    "name": "value",
                    "type": "uint256"
                }
            ],
            "name": "HodlTransfer",
            "type": "event"
        },
        {
            "anonymous": false,
            "inputs": [
                {
                    "indexed": true,
                    "internalType": "address",
                    "name": "previousOwner",
                    "type": "address"
                },
                {
                    "indexed": true,
                    "internalType": "address",
                    "name": "newOwner",
                    "type": "address"
                }
            ],
            "name": "OwnershipTransferred",
            "type": "event"
        },
        {
            "anonymous": false,
            "inputs": [
                {
                    "indexed": true,
                    "internalType": "address",
                    "name": "from",
                    "type": "address"
                },
                {
                    "indexed": true,
                    "internalType": "address",
                    "name": "to",
                    "type": "address"
                },
                {
                    "indexed": false,
                    "internalType": "uint256",
                    "name": "value",
                    "type": "uint256"
                }
            ],
            "name": "Transfer",
            "type": "event"
        },
        {
            "constant": true,
            "inputs": [
                {
                    "internalType": "address",
                    "name": "owner",
                    "type": "address"
                },
                {
                    "internalType": "address",
                    "name": "spender",
                    "type": "address"
                }
            ],
            "name": "allowance",
            "outputs": [
                {
                    "internalType": "uint256",
                    "name": "",
                    "type": "uint256"
                }
            ],
            "payable": false,
            "stateMutability": "view",
            "type": "function"
        },
        {
            "constant": false,
            "inputs": [
                {
                    "internalType": "address",
                    "name": "spender",
                    "type": "address"
                },
                {
                    "internalType": "uint256",
                    "name": "value",
                    "type": "uint256"
                }
            ],
            "name": "approve",
            "outputs": [
                {
                    "internalType": "bool",
                    "name": "",
                    "type": "bool"
                }
            ],
            "payable": false,
            "stateMutability": "nonpayable",
            "type": "function"
        },
        {
            "constant": true,
            "inputs": [
                {
                    "internalType": "address",
                    "name": "account",
                    "type": "address"
                }
            ],
            "name": "balanceOf",
            "outputs": [
                {
                    "internalType": "uint256",
                    "name": "",
                    "type": "uint256"
                }
            ],
            "payable": false,
            "stateMutability": "view",
            "type": "function"
        },
        {
            "constant": false,
            "inputs": [
                {
                    "internalType": "uint256",
                    "name": "value",
                    "type": "uint256"
                }
            ],
            "name": "burn",
            "outputs": [
                {
                    "internalType": "bool",
                    "name": "",
                    "type": "bool"
                }
            ],
            "payable": false,
            "stateMutability": "nonpayable",
            "type": "function"
        },
        {
            "constant": true,
            "inputs": [],
            "name": "circulatingSupply",
            "outputs": [
                {
                    "internalType": "uint256",
                    "name": "",
                    "type": "uint256"
                }
            ],
            "payable": false,
            "stateMutability": "view",
            "type": "function"
        },
        {
            "constant": true,
            "inputs": [],
            "name": "claimPeriod",
            "outputs": [
                {
                    "internalType": "uint256",
                    "name": "",
                    "type": "uint256"
                }
            ],
            "payable": false,
            "stateMutability": "view",
            "type": "function"
        },
        {
            "constant": false,
            "inputs": [],
            "name": "claimReward",
            "outputs": [
                {
                    "internalType": "bool",
                    "name": "",
                    "type": "bool"
                },
                {
                    "internalType": "uint256",
                    "name": "",
                    "type": "uint256"
                },
                {
                    "internalType": "uint256",
                    "name": "",
                    "type": "uint256"
                }
            ],
            "payable": false,
            "stateMutability": "nonpayable",
            "type": "function"
        },
        {
            "constant": true,
            "inputs": [],
            "name": "decimals",
            "outputs": [
                {
                    "internalType": "uint8",
                    "name": "",
                    "type": "uint8"
                }
            ],
            "payable": false,
            "stateMutability": "view",
            "type": "function"
        },
        {
            "constant": false,
            "inputs": [
                {
                    "internalType": "address",
                    "name": "spender",
                    "type": "address"
                },
                {
                    "internalType": "uint256",
                    "name": "subtractedValue",
                    "type": "uint256"
                }
            ],
            "name": "decreaseAllowance",
            "outputs": [
                {
                    "internalType": "bool",
                    "name": "",
                    "type": "bool"
                }
            ],
            "payable": false,
            "stateMutability": "nonpayable",
            "type": "function"
        },
        {
            "constant": false,
            "inputs": [
                {
                    "internalType": "uint256",
                    "name": "amount",
                    "type": "uint256"
                }
            ],
            "name": "donateReward",
            "outputs": [
                {
                    "internalType": "bool",
                    "name": "",
                    "type": "bool"
                }
            ],
            "payable": false,
            "stateMutability": "nonpayable",
            "type": "function"
        },
        {
            "constant": true,
            "inputs": [],
            "name": "hodlSupply",
            "outputs": [
                {
                    "internalType": "uint256",
                    "name": "",
                    "type": "uint256"
                }
            ],
            "payable": false,
            "stateMutability": "view",
            "type": "function"
        },
        {
            "constant": false,
            "inputs": [
                {
                    "internalType": "address",
                    "name": "spender",
                    "type": "address"
                },
                {
                    "internalType": "uint256",
                    "name": "addedValue",
                    "type": "uint256"
                }
            ],
            "name": "increaseAllowance",
            "outputs": [
                {
                    "internalType": "bool",
                    "name": "",
                    "type": "bool"
                }
            ],
            "payable": false,
            "stateMutability": "nonpayable",
            "type": "function"
        },
        {
            "constant": true,
            "inputs": [],
            "name": "name",
            "outputs": [
                {
                    "internalType": "string",
                    "name": "",
                    "type": "string"
                }
            ],
            "payable": false,
            "stateMutability": "view",
            "type": "function"
        },
        {
            "constant": true,
            "inputs": [],
            "name": "owner",
            "outputs": [
                {
                    "internalType": "address",
                    "name": "",
                    "type": "address"
                }
            ],
            "payable": false,
            "stateMutability": "view",
            "type": "function"
        },
        {
            "constant": true,
            "inputs": [
                {
                    "internalType": "address",
                    "name": "account",
                    "type": "address"
                }
            ],
            "name": "prevClaimOf",
            "outputs": [
                {
                    "internalType": "uint256",
                    "name": "",
                    "type": "uint256"
                }
            ],
            "payable": false,
            "stateMutability": "view",
            "type": "function"
        },
        {
            "constant": false,
            "inputs": [],
            "name": "renounceOwnership",
            "outputs": [],
            "payable": false,
            "stateMutability": "nonpayable",
            "type": "function"
        },
        {
            "constant": true,
            "inputs": [],
            "name": "symbol",
            "outputs": [
                {
                    "internalType": "string",
                    "name": "",
                    "type": "string"
                }
            ],
            "payable": false,
            "stateMutability": "view",
            "type": "function"
        },
        {
            "constant": true,
            "inputs": [],
            "name": "totalSupply",
            "outputs": [
                {
                    "internalType": "uint256",
                    "name": "",
                    "type": "uint256"
                }
            ],
            "payable": false,
            "stateMutability": "view",
            "type": "function"
        },
        {
            "constant": false,
            "inputs": [
                {
                    "internalType": "address",
                    "name": "recipient",
                    "type": "address"
                },
                {
                    "internalType": "uint256",
                    "name": "amount",
                    "type": "uint256"
                }
            ],
            "name": "transfer",
            "outputs": [
                {
                    "internalType": "bool",
                    "name": "",
                    "type": "bool"
                }
            ],
            "payable": false,
            "stateMutability": "nonpayable",
            "type": "function"
        },
        {
            "constant": false,
            "inputs": [
                {
                    "internalType": "address",
                    "name": "sender",
                    "type": "address"
                },
                {
                    "internalType": "address",
                    "name": "recipient",
                    "type": "address"
                },
                {
                    "internalType": "uint256",
                    "name": "amount",
                    "type": "uint256"
                }
            ],
            "name": "transferFrom",
            "outputs": [
                {
                    "internalType": "bool",
                    "name": "",
                    "type": "bool"
                }
            ],
            "payable": false,
            "stateMutability": "nonpayable",
            "type": "function"
        },
        {
            "constant": false,
            "inputs": [
                {
                    "internalType": "address",
                    "name": "newOwner",
                    "type": "address"
                }
            ],
            "name": "transferOwnership",
            "outputs": [],
            "payable": false,
            "stateMutability": "nonpayable",
            "type": "function"
        }
    ],
    "bytecode": "60806040523480156200001157600080fd5b50604051620017a8380380620017a8833981810160405260a08110156200003757600080fd5b81019080805160405193929190846401000000008211156200005857600080fd5b9083019060208201858111156200006e57600080fd5b82516401000000008111828201881017156200008957600080fd5b82525081516020918201929091019080838360005b83811015620000b85781810151838201526020016200009e565b50505050905090810190601f168015620000e65780820380516001836020036101000a031916815260200191505b50604052602001805160405193929190846401000000008211156200010a57600080fd5b9083019060208201858111156200012057600080fd5b82516401000000008111828201881017156200013b57600080fd5b82525081516020918201929091019080838360005b838110156200016a57818101518382015260200162000150565b50505050905090810190601f168015620001985780820380516001836020036101000a031916815260200191505b50604090815260208201519082015160609092015190935090915080858585858383836000620001d06001600160e01b036200029116565b600080546001600160a01b0319166001600160a01b0383169081178255604051929350917f8be0079c531659141344cd1fd0a4f28419497f9722a3daafe3b4186f6b6457e0908290a35082516200022f906004906020860190620003fd565b50815162000245906005906020850190620003fd565b506006805460ff191660ff92909216919091179055506200027b90506200026b62000291565b826001600160e01b036200029616565b505050600791909155506200049f945050505050565b335b90565b6001600160a01b038216620002f2576040805162461bcd60e51b815260206004820152601f60248201527f54524332303a206d696e7420746f20746865207a65726f206164647265737300604482015290519081900360640190fd5b6200030e816003546200039b60201b62000b021790919060201c565b6003556001600160a01b0382166000908152600160209081526040909120546200034391839062000b026200039b821b17901c565b6001600160a01b03831660008181526001602090815260408083209490945583518581529351929391927fddf252ad1be2c89b69c2b068fc378daa952ba7f163c4a11628f55a4df523b3ef9281900390910190a35050565b600082820183811015620003f6576040805162461bcd60e51b815260206004820152601b60248201527f536166654d6174683a206164646974696f6e206f766572666c6f770000000000604482015290519081900360640190fd5b9392505050565b828054600181600116156101000203166002900490600052602060002090601f016020900481019282601f106200044057805160ff191683800117855562000470565b8280016001018555821562000470579182015b828111156200047057825182559160200191906001019062000453565b506200047e92915062000482565b5090565b6200029391905b808211156200047e576000815560010162000489565b6112f980620004af6000396000f3fe608060405234801561001057600080fd5b50600436106101375760003560e01c806370a08231116100b857806395d89b411161007c57806395d89b411461035f578063a457c2d714610367578063a9059cbb14610393578063b88a802f146103bf578063dd62ed3e146103e7578063f2fde38b1461041557610137565b806370a08231146102fb578063715018a6146103215780637dc2cd981461032b5780638da5cb5b146103335780639358928b1461035757610137565b8063313ce567116100ff578063313ce56714610251578063395093511461026f57806342966c681461029b578063453d514f146102b8578063578cc8e0146102de57610137565b806306fdde031461013c578063095ea7b3146101b957806318160ddd146101f957806323b872dd146102135780632966d6fe14610249575b600080fd5b61014461043b565b6040805160208082528351818301528351919283929083019185019080838360005b8381101561017e578181015183820152602001610166565b50505050905090810190601f1680156101ab5780820380516001836020036101000a031916815260200191505b509250505060405180910390f35b6101e5600480360360408110156101cf57600080fd5b506001600160a01b0381351690602001356104d1565b604080519115158252519081900360200190f35b6102016104ef565b60408051918252519081900360200190f35b6101e56004803603606081101561022957600080fd5b506001600160a01b03813581169160208101359091169060400135610515565b6102016105c6565b6102596105cc565b6040805160ff9092168252519081900360200190f35b6101e56004803603604081101561028557600080fd5b506001600160a01b0381351690602001356105d5565b6101e5600480360360208110156102b157600080fd5b5035610629565b610201600480360360208110156102ce57600080fd5b50356001600160a01b0316610644565b6101e5600480360360208110156102f457600080fd5b503561065f565b6102016004803603602081101561031157600080fd5b50356001600160a01b0316610675565b610329610690565b005b61020161074e565b61033b610754565b604080516001600160a01b039092168252519081900360200190f35b610201610763565b610144610769565b6101e56004803603604081101561037d57600080fd5b506001600160a01b0381351690602001356107ca565b6101e5600480360360408110156103a957600080fd5b506001600160a01b03813516906020013561081e565b6103c76108a5565b604080519315158452602084019290925282820152519081900360600190f35b610201600480360360408110156103fd57600080fd5b506001600160a01b03813581169160200135166108d3565b6103296004803603602081101561042b57600080fd5b50356001600160a01b03166108fe565b60048054604080516020601f60026000196101006001881615020190951694909404938401819004810282018101909252828152606093909290918301828280156104c75780601f1061049c576101008083540402835291602001916104c7565b820191906000526020600020905b8154815290600101906020018083116104aa57829003601f168201915b5050505050905090565b60006104e56104de610a12565b8484610a16565b5060015b92915050565b60006105106104fc6105c6565b610504610763565b9063ffffffff610b0216565b905090565b60008060006105348661052788610675565b61052f6104ef565b610b63565b90925090506105528661054d848463ffffffff610b0216565b610cd4565b6000806105628761052789610675565b909250905061057b8761054d848463ffffffff610b0216565b610586888888610dc6565b6105b888610592610a12565b6105b3896105a78d6105a2610a12565b6108d3565b9063ffffffff610f0a16565b610a16565b506001979650505050505050565b60095490565b60065460ff1690565b60006104e56105e2610a12565b846105b385600260006105f3610a12565b6001600160a01b03908116825260208083019390935260409182016000908120918c16815292529020549063ffffffff610b0216565b600061063c610636610a12565b83610f67565b506001919050565b6001600160a01b031660009081526008602052604090205490565b600061066c610636610a12565b61063c82611042565b6001600160a01b031660009081526001602052604090205490565b610698610a12565b6001600160a01b03166106a9610754565b6001600160a01b031614610704576040805162461bcd60e51b815260206004820181905260248201527f4f776e61626c653a2063616c6c6572206973206e6f7420746865206f776e6572604482015290519081900360640190fd5b600080546040516001600160a01b03909116907f8be0079c531659141344cd1fd0a4f28419497f9722a3daafe3b4186f6b6457e0908390a3600080546001600160a01b0319169055565b60075490565b6000546001600160a01b031690565b60035490565b60058054604080516020601f60026000196101006001881615020190951694909404938401819004810282018101909252828152606093909290918301828280156104c75780601f1061049c576101008083540402835291602001916104c7565b60006104e56107d7610a12565b846105b385600260006107e8610a12565b6001600160a01b03908116825260208083019390935260409182016000908120918c16815292529020549063ffffffff610f0a16565b600080600061083e61082e610a12565b610527610839610a12565b610675565b9150915061085d61084d610a12565b61054d848463ffffffff610b0216565b60008061086d8761052789610675565b90925090506108868761054d848463ffffffff610b0216565b610898610891610a12565b8888610dc6565b5060019695505050505050565b60008060008060006108b861082e610a12565b915091506108c761084d610a12565b60019591945092509050565b6001600160a01b03918216600090815260026020908152604080832093909416825291909152205490565b610906610a12565b6001600160a01b0316610917610754565b6001600160a01b031614610972576040805162461bcd60e51b815260206004820181905260248201527f4f776e61626c653a2063616c6c6572206973206e6f7420746865206f776e6572604482015290519081900360640190fd5b6001600160a01b0381166109b75760405162461bcd60e51b81526004018080602001828103825260268152602001806111cf6026913960400191505060405180910390fd5b600080546040516001600160a01b03808516939216917f8be0079c531659141344cd1fd0a4f28419497f9722a3daafe3b4186f6b6457e091a3600080546001600160a01b0319166001600160a01b0392909216919091179055565b3390565b6001600160a01b038316610a5b5760405162461bcd60e51b815260040180806020018281038252602481526020018061125f6024913960400191505060405180910390fd5b6001600160a01b038216610aa05760405162461bcd60e51b81526004018080602001828103825260228152602001806112186022913960400191505060405180910390fd5b6001600160a01b03808416600081815260026020908152604080832094871680845294825291829020859055815185815291517f8c5be1e5ebec7d5bd14f71427d1e84f3dd0314c0f7b2291e5b200ac8c7c3b9259281900390910190a3505050565b600082820183811015610b5c576040805162461bcd60e51b815260206004820152601b60248201527f536166654d6174683a206164646974696f6e206f766572666c6f770000000000604482015290519081900360640190fd5b9392505050565b6000806001600160a01b038516610bab5760405162461bcd60e51b81526004018080602001828103825260278152602001806111a86027913960400191505060405180910390fd5b610bb485610644565b610bdb5750506001600160a01b038316600090815260086020526040812042905580610ccc565b6000610bf6610be987610644565b429063ffffffff610f0a16565b90506000610c0a828763ffffffff61109316565b9050610c24610c176105c6565b829063ffffffff61109316565b9050610c3e610c3161074e565b829063ffffffff6110ec16565b9050610c50818663ffffffff6110ec16565b90506000610c77612710610c6b84600163ffffffff61109316565b9063ffffffff6110ec16565b9050610c816105c6565b8210610c9c57610c97610c926105c6565b611156565b610ca5565b610ca582611156565b6001600160a01b03881660009081526008602052604090204290559093509150610ccc9050565b935093915050565b6001600160a01b038216610d2f576040805162461bcd60e51b815260206004820152601f60248201527f54524332303a206d696e7420746f20746865207a65726f206164647265737300604482015290519081900360640190fd5b600354610d42908263ffffffff610b0216565b6003556001600160a01b038216600090815260016020526040902054610d6e908263ffffffff610b0216565b6001600160a01b03831660008181526001602090815260408083209490945583518581529351929391927fddf252ad1be2c89b69c2b068fc378daa952ba7f163c4a11628f55a4df523b3ef9281900390910190a35050565b6001600160a01b038316610e0b5760405162461bcd60e51b815260040180806020018281038252602581526020018061123a6025913960400191505060405180910390fd5b6001600160a01b038216610e505760405162461bcd60e51b81526004018080602001828103825260238152602001806111f56023913960400191505060405180910390fd5b6001600160a01b038316600090815260016020526040902054610e79908263ffffffff610f0a16565b6001600160a01b038085166000908152600160205260408082209390935590841681522054610eae908263ffffffff610b0216565b6001600160a01b0380841660008181526001602090815260409182902094909455805185815290519193928716927fddf252ad1be2c89b69c2b068fc378daa952ba7f163c4a11628f55a4df523b3ef92918290030190a3505050565b600082821115610f61576040805162461bcd60e51b815260206004820152601e60248201527f536166654d6174683a207375627472616374696f6e206f766572666c6f770000604482015290519081900360640190fd5b50900390565b6001600160a01b038216610fac5760405162461bcd60e51b81526004018080602001828103825260218152602001806112a46021913960400191505060405180910390fd5b600354610fbf908263ffffffff610f0a16565b6003556001600160a01b038216600090815260016020526040902054610feb908263ffffffff610f0a16565b6001600160a01b0383166000818152600160209081526040808320949094558351858152935191937fddf252ad1be2c89b69c2b068fc378daa952ba7f163c4a11628f55a4df523b3ef929081900390910190a35050565b600954611055908263ffffffff610b0216565b60095560408051828152905130916000917ffe3f2893e051c26c1098b1484f61befc1e0d326baf94d548ba5cb145715d3b859181900360200190a350565b6000826110a2575060006104e9565b828202828482816110af57fe5b0414610b5c5760405162461bcd60e51b81526004018080602001828103825260218152602001806112836021913960400191505060405180910390fd5b6000808211611142576040805162461bcd60e51b815260206004820152601a60248201527f536166654d6174683a206469766973696f6e206279207a65726f000000000000604482015290519081900360640190fd5b600082848161114d57fe5b04949350505050565b600954611169908263ffffffff610f0a16565b60095560408051828152905160009130917ffe3f2893e051c26c1098b1484f61befc1e0d326baf94d548ba5cb145715d3b859181900360200190a35056fe5452433230486f646c3a206163636f756e7420697320746865207a65726f20616464726573732e4f776e61626c653a206e6577206f776e657220697320746865207a65726f206164647265737354524332303a207472616e7366657220746f20746865207a65726f206164647265737354524332303a20617070726f766520746f20746865207a65726f206164647265737354524332303a207472616e736665722066726f6d20746865207a65726f206164647265737354524332303a20617070726f76652066726f6d20746865207a65726f2061646472657373536166654d6174683a206d756c7469706c69636174696f6e206f766572666c6f7754524332303a206275726e2066726f6d20746865207a65726f2061646472657373a265627a7a72315820ed5a6a80665e5fa6ff258ebc851ae3f3325ccfe09fb152a7e250d7b19be01a9d64736f6c63430005110032",
    "sourcePath": "k:/github/UpDawg_Smart_Contract/Token.sol",
    "compiler": {
        "name": "solc",
        "version": "0.5.17+commit.d19bba13"
    },
    "functionHashes": {
        "allowance(address,address)": "dd62ed3e",
        "approve(address,uint256)": "095ea7b3",
        "balanceOf(address)": "70a08231",
        "burn(uint256)": "42966c68",
        "circulatingSupply()": "9358928b",
        "claimPeriod()": "7dc2cd98",
        "claimReward()": "b88a802f",
        "decimals()": "313ce567",
        "decreaseAllowance(address,uint256)": "a457c2d7",
        "donateReward(uint256)": "578cc8e0",
        "hodlSupply()": "2966d6fe",
        "increaseAllowance(address,uint256)": "39509351",
        "name()": "06fdde03",
        "owner()": "8da5cb5b",
        "prevClaimOf(address)": "453d514f",
        "renounceOwnership()": "715018a6",
        "symbol()": "95d89b41",
        "totalSupply()": "18160ddd",
        "transfer(address,uint256)": "a9059cbb",
        "transferFrom(address,address,uint256)": "23b872dd",
        "transferOwnership(address)": "f2fde38b"
    },
    "gasEstimates": {
        "creation": {
            "codeDepositCost": "971400",
            "executionCost": "infinite",
            "totalCost": "infinite"
        },
        "external": {
            "allowance(address,address)": "1360",
            "approve(address,uint256)": "infinite",
            "balanceOf(address)": "1165",
            "burn(uint256)": "infinite",
            "circulatingSupply()": "1109",
            "claimPeriod()": "1065",
            "claimReward()": "infinite",
            "decimals()": "1036",
            "decreaseAllowance(address,uint256)": "infinite",
            "donateReward(uint256)": "infinite",
            "hodlSupply()": "1110",
            "increaseAllowance(address,uint256)": "infinite",
            "name()": "infinite",
            "owner()": "1126",
            "prevClaimOf(address)": "1231",
            "renounceOwnership()": "24300",
            "symbol()": "infinite",
            "totalSupply()": "infinite",
            "transfer(address,uint256)": "infinite",
            "transferFrom(address,address,uint256)": "infinite",
            "transferOwnership(address)": "infinite"
        }
    }
}